:030000000216A73E
:0C16A700787FE4F6D8FD7581510216EE44
:101BAC00D3EF9400EE940040147D727C00ED1D7018
:0D1BBC00011CED4C70F7EF1F70E61E80E37A
:011BC90022F9
:031CAE00C29222BD
:021AB8008F3A63
:101ABA00E4F53BF53BE53BC3953A5016D2927FC815
:101ACA007E00121BACC2927FC87E00121BAC053B83
:021ADA0080E3A7
:011ADC0022E7
:031CB100C29122BB
:031CB400D29122A8
:031B6E00014E0124
:10180A00EF6003754E01E54E604230A40930A5062B
:10181A0030A60320A736121CB47F327E00121BACFE
:10182A00E4F54E20A406754F027F022220A5067514
:10183A004F037F032220A606754F047F042220A7A8
:10184A0006754F057F0522121CB1800F30A40C309B
:0D185A00A50930A60630A703754E017F00DA
:01186700225E
:100003000010081020100000000000000000000095
:10001300000000000000000000F8000000000000E5
:1000230000333000000000100C06100C0600000026
:1000330000000000000040C07840C0784000043F4A
:1000430004043F040400007088FC0830000000181A
:1000530020FF211E0000F008F000E018000000213E
:100063001C031E211E0000F00888700000001E21E2
:1000730023241927211010160E0000000000000091
:10008300000000000000000000E01804020000006F
:1000930000071820400000020418E00000000040A0
:1000A300201807000000404080F08040400002021A
:1000B300010F01020200000000F000000000010136
:1000C300011F01010100000000000000000080B0DA
:1000D30070000000000000000000000000000001AC
:1000E30001010101010100000000000000000030D7
:1000F3003000000000000000000080601804006071
:1001030018060100000000E010080810E000000FCE
:10011300102020100F00001010F800000000002035
:10012300203F20200000007008080888700000307D
:100133002824222130000030088888483000001825
:10014300202020110E000000C02010F8000000073E
:100153000424243F240000F80888880808000019B4
:10016300212020110E0000E0108888180000000FE5
:10017300112020110E0000380808C83808000000BC
:10018300003F000000000070880808887000001C11
:10019300222121221C0000E010080810E0000000CA
:1001A300312222110F00000000C0C0000000000037
:1001B300003030000000000000800000000000005C
:1001C3008060000000000000804020100800000153
:1001D3000204081020004040404040404000040416
:1001E30004040404040000081020408000000020E0
:1001F300100804020100007048080808F00000001D
:10020300003036010000C030C828E810E0000718AD
:10021300272423140B000000C038E0000000203C1A
:1002230023020227382008F8888888700000203FBE
:10023300202020110E00C0300808080838000718D5
:1002430020202010080008F808080810E000203FCC
:10025300202020100F0008F88888E8081000203FAD
:1002630020202320180008F88888E8081000203F81
:10027300200003000000C0300808083800000718F9
:100283002020221E020008F808000008F808203F7A
:10029300210101213F20000808F808080000002080
:1002A300203F2020000000000808F8080800C08054
:1002B30080807F00000008F888C028180800203FCD
:1002C30020012638200008F8080000000000203F25
:1002D30020202020300008F8F800F8F80800203F1C
:1002E300003F003F200008F830C00008F808203F16
:1002F300200007183F00E01008080810E0000F1066
:10030300202020100F0008F808080808F000203FFC
:10031300210101010000E01008080810E0000F1897
:10032300242438504F0008F8888888887000203FBC
:100333002000030C302000708808080838000038BB
:10034300202121221C00180808F8080818000000C2
:10035300203F2000000008F808000008F808001FEC
:10036300202020201F000878880000C838080000DB
:1003730007380E010000F80800F80008F800033CF5
:100383000700073C030008186880806818082030BD
:100393002C03032C30200838C800C838080000009C
:1003A300203F2000000010080808C8380800203843
:1003B300262120201800000000FE02020200000097
:1003C300007F40404000000C30C0000000000000EF
:1003D30000010638C00000020202FE0000000040D7
:1003E30040407F00000000000402020204000000FD
:1003F30000000000000000000000000000008080FA
:1004030080808080808000020204000000000000E1
:1004130000000000000000008080808000000019C0
:10042300242222223F2008F8008080000000003FA1
:10043300112020110E000000008080800000000EBB
:10044300112020201100000000808088F800000E99
:10045300112020103F200000808080800000001FBA
:10046300222222221300008080F08888881800202E
:10047300203F202000000000808080808000006BEF
:1004830094949493600008F8008080800000203FDB
:10049300210000203F2000809898000000000020E9
:1004A300203F20200000000000809898000000C03A
:1004B3008080807F000008F8000080808000203F5B
:1004C30024022D302000000808F80000000000205E
:1004D300203F202000008080808080808000203F9B
:1004E30020003F20003F8080008080800000203F6C
:1004F300210000203F200000808080800000001F3A
:10050300202020201F00808000808000000080FFCA
:10051300A12020110E000000008080808000000ECA
:10052300112020A0FF808080800080808000202018
:100533003F21200001000000808080808000003384
:10054300242424241900008080E08080000000001F
:10055300001F202000008080000000808000001F1A
:10056300202020103F2080808000008080800001B8
:100573000E300806010080800080008080800F30EC
:100583000C030C300F00008080008080800000206E
:10059300312E0E3120008080800000808080808199
:1005A3008E7018060100008080808080800000210A
:1005B300302C2221300000000000807C0202000069
:1005C3000000003F404000000000FF00000000006A
:1005D3000000FF0000000002027C800000000040D9
:1005E300403F000000000006010102020404000075
:1005F300000000000000D6B8101010FF1090003F5C
:1006030048484444444270000444827F010000FF90
:100613004949494949FF0000CEC62030AC63100860
:1006230008F8090E08F808080000226722129280D1
:1006330040211608162140808000BFBC20202424BE
:100643002424BF6424342824222020001008040218
:10065300010D0B094989493901000000C7DA04C4B7
:100663005F54F4545FC41410FF1010F00000809521
:1006730095957F55D55520184780403F0000CFB54D
:10068300000022322AA6A262211109810100000082
:10069300004222130B42827E02020A12234600000A
:1006A300CDB32030AC63300088C8A8998E88A8C821
:1006B300880022672212128040300F00003F404022
:1006C3007100BFAA80828282FE8282828282FE823F
:1006D30082828000008040300F0000000000FF0095
:1006E30000000000CABC1010F01F10F00040E058DA
:1006F30047405060C0004022150816210000FE420A
:10070300424242FE0000C2BC808082929292929248
:10071300929292FE80808000404022241048807F85
:100723000408182422404000C9BE80FE8282FE8055
:10073300FE8282FE8000F800FF00403F0020BF40A1
:100743003F40807F00004F807F00B30000FE225AAD
:100753008620102824E324281020200000FF04080A
:1007630027110D41817F010509310000C7E51060A4
:10077300028C00445454547F5454544440000404A1
:100783007E010000FF15151555957F000000BFD5AC
:10079300100C4424140405060404142444140C000B
:1007A300004040414141417F4141414140400000BF
:1007B300BFE20000FC2424A4643DA62424242424B2
:1007C300040040300F1013121212FF1212121210F3
:1007D3001000C7EB4042CC0000445454547F54549F
:1007E3005444400000007F201000FF151515559557
:1007F3007F000000CAE488681FC80810C85452D19B
:10080300129408D01000091909FF0500FF1292FF86
:10081300005F807F0000C8EB000000000001E21CC5
:10082300E000000000000000804020100C030000E6
:1008330000030C3040808000B3C90000F88888882A
:10084300880808FF08090AC8080080601F001020F4
:100853001F80402116182641F800B9A6080808F899
:100863000808081010FF101010F000001030101FBF
:10087300088848300E014080403F0000D4D902026E
:10088300F292929292FE92929292F20202000404E7
:10089300FF0404040407040444847F040400B4CE66
:1008A30000020C80608040300FC808082818000040
:1008B30002027E01804020180601061820408000B5
:1008C300CAA70040301E101010FF101010101000A7
:1008D300000081814121110D0301030D112141818B
:1008E3008100B0DC00FE02FA02FE4020D81710108F
:1008F300F01010008047300F106780402116081653
:1009030021408000D500000202C2020202FE828260
:100913008282820200004040407F4040407F40404E
:10092300404040404000D4DA080888C8380C0B081F
:1009330008E8080808080800020100FF4041414197
:10094300417F414141414000B1A3008060F807006D
:100953003E2222E222223E000000010000FF20117D
:10096300090503FF030509112000B4E6040484E428
:100973001C0724242424A46424040400020100FF8B
:1009830000020242827F020202020200B7C5080887
:10099300F94A48C84820D8171010F010100040300A
:1009A3000F20403F80402116081621408000B4F2FA
:1009B300101010FF109004040404FC040404040049
:1009C3000444827F0100000040807F00000000009B
:1009D300BFA8404040404040FF4444444444444056
:1009E3004000000000000000FF00000204081000A7
:1009F3000000B6C1404042CC00002024A4243FA400
:100A030024A460000000007F2010888A4C29180F5E
:100A13001828C800C8A10202FE929292FE0206FCA8
:100A2300040404FC000008180F080804FF048440B1
:100A3300271827408000D6D00000F010101010FFB8
:100A430010101010F000000000000F04040404FF55
:100A5300040404040F000000BCD3101010FF101096
:100A6300F00000F8080808F800008040300F4080CC
:100A73007F00007F2020207F0000D4D8909494F43E
:100A83009F9494941010FF1012D410002026252454
:100A9300FE141414804027182641F000C8B70484BC
:100AA300E45C44C42010E82724E4342CE000020171
:100AB3007F10103F80601F09093F49897F00B6A856
:100AC300100C4444444445C64444444444140C0078
:100AD3008040201E2040407F444444444440400022
:100AE300CEDE0040424242C27E42C24242424040C7
:100AF3000000804020100C0300003F404040407045
:100B03000000C8CF404042CC0000000000FF0000BE
:100B1300000000000000003F90482018070007185D
:040B230020408000EE
:101B4C00E4FEEEC39408748094805015EF30E704E3
:101B5C00D2968002C296C297D297EF25E0FF0E80F4
:011B6C00E197
:011B6D002255
:0B1BE800F583E493FF7E007D017C008C
:101BF300ED4C6004D2948002C294C293121B4CD267
:021C030093222A
:101A0E00AB07ED24B0FFE433FEE4FDFC121BF3EB59
:101A1E00240254F0C4540F7E004410FF121BF3EB4B
:0C1A2E002402FF7E00EF540FFF021BF3A8
:10190C00EF4E600479FF8002E4F9E4FBEBFF7E000C
:10191C00C39408748094805030EF24B0FFEE33FEF3
:10192C00E4FDFC121BF3E4FFFE121BF3E47F10FE3C
:10193C00121BF3E4FAEAC39482748094805007E992
:09194C00121BEC0A80EF0B80C3B2
:01195500226F
:101C6F00D2957F647E00121BACC2957F647E0012FA
:051C7F001BACD2952210
:10141000121C6FE4FDFC7FAEFE121BF3E4FFFE1214
:101420001BF3E47F10FE121BF3E47F40FE121BF35C
:10143000E47FB0FE121BF3E47F81FE121BF3E47F16
:10144000FFFE121BF3E47FA1FE121BF3E47FA6FE56
:10145000121BF3E47FA8FE121BF3E47F3FFE121B76
:10146000F3E47FC8FE121BF3E47FD3FE121BF3E408
:10147000FFFE121BF3E47FD5FE121BF3E47F80FE18
:10148000121BF3E47FD9FE121BF3E47FF1FE121B63
:10149000F3E47FDAFE121BF3E47F12FE121BF3E487
:1014A0007FDBFE121BF3E47F30FE121BF3E47F8D23
:1014B000FE121BF3E47F14FE121BF3E47FAFFE0267
:0214C0001BF31C
:0414C2008F478D487B
:1014C600E4F54BF54CF54DEB24E0F54BD3EF948169
:1014D600748094804007E4F54705480548E54A646A
:1014E600107051F54DC3E54D940274809480507888
:1014F600E548254DFDAF47121A0EE4F54CC3E54C01
:10150600940874809480502875F010E54BA4254CFF
:10151600F582E435F0F58375F008E54D120E5DE5CC
:10152600822409F582E5833400121BE8054C80CD40
:10153600054D80B1AD48AF47121A0EE4F54CC3E530
:101546004C940674809480501FE54B75F006A424D5
:1015560003F582E43400F583E582254CF582E43513
:0815660083121BE8054C80D63E
:01156E00225A
:0A17A1008F3C8D3D8B3E8A3F89404E
:1017AB00E4F542AF41FEEF64107008E541C313F559
:1017BB0043800EEF64084E7045E541C3132402F5D8
:1017CB0043AB3EAA3FA940854282758300120D00B0
:1017DB00FB602B85414AAD3DAF3C1214C2E543255E
:1017EB003CF53CD3947874809480400EE4F53CE552
:0E17FB0041131313541F253DF53D054280C3D5
:0118090022BC
:04199F008F478D4899
:1019A300E4754C01F54BF54AF549AF481548EF602E
:1019B3001BAB4CAA4BA94AA849AF47E4FCFDFE1256
:1019C3000D2D8F4C8E4B8D4A8C4980DEAF4CAE4B28
:0419D300AD4AAC4924
:0119D70022ED
:04160E008F3C8D3D43
:10161200E4F545AF43FEEF64107008E543C313F5EC
:1016220046800EEF64084E707BE543C3132402F537
:1016320046E4F544E544C395425069C3E542954406
:1016420014FD7F0A12199FA804A905AA06AB07AFC9
:1016520041AE40AD3FAC3E120DB8E47B0AFAF9F858
:10166200120DB8AF03AE07E5457020E54214FFE561
:1016720044C39F5016EE7010E5468544F0A4253C05
:10168200FF85434A7B208013754501E5468544F07A
:10169200A4253CFFEE2430FB85434AAD3D1214C223
:0416A20005448090EB
:0116A6002221
:0A1355008F428D438B448A45894680
:10135F00754800754927E4F547C3E5479549E49576
:10136F0048400302140FAB44AA45A946120CE7FFED
:10137F0075F022E547A424F9F582E5F03405F583ED
:10138F00E4936F7076900001120D00FF75F022E567
:10139F0047A424FAF582E5F03405F583E4936F70E2
:1013AF005AFAEAC39402748094805054E5432AFD9C
:1013BF00AF42121A0EE4FBEBC3941074809480506A
:1013CF0037EA75F010A4FFEB7C002FFFEC35F0FE31
:1013DF0075F022E547A424FBF582E5F03405F5838B
:1013EF00E5822FF582E5833EF583E493F9FF7E00D6
:1013FF007D01121BF30B80BF0A80A70547021368FC
:01140F0022BA
:0A18BF008F3C8D3D8B3E8A3F89402F
:1018C900754110AB3EAA3FA940120CE76034AD3D0B
:1018D900AF3C121355E541253CF53CC37482954153
:1018E900FFE53CD39F400EE4F53CE5411313135447
:1018F9001F253DF53D74022540F540E4353FF53F90
:0219090080C19B
:01190B0022B9
:10127F00C7EBCAE4C8EBD6B8CEC600494400494410
:10128F003A00B6C1C8A100D6B8CEC600B3C9B9A638
:10129F0000C7EBD4D9B4CEB7C5C8EBD6B8CEC6000D
:1012AF00C8B7C8CFB3C9B9A600CAA7B0DCCAA7B020
:1012BF00DC00BFAACABCBFBCC7DA00C7EBB7C5C842
:1012CF00EBD6B8CEC600BFBCC7DAB3C9B9A600BF4C
:1012DF00BCC7DACAA7B0DC00CEDED6B8CEC600C90E
:1012EF00BE00B3B3C9B9A600C7E5BFD5B3C9B9A688
:1012FF0000BCD300D4D800D6D000010007130000E3
:10130F000000001BEF01FFFFFFFF010003010005BD
:10131F000100031D00210100080401000003E70084
:10132F00F80100080401000000130021010004026D
:10133F000100080100040202000901000305000971
:06134F000100030D001176
:101B7100090F0100060601000B0019040BFFFFFF0E
:051B8100FF0218000046
:101C8400759850E4F587758920758DFD758BFDD2A7
:041C94008ED2AF221B
:061C9800EE90131393FF10
:081C9E008F993099FDC29922D3
:071CA6003098FDC298AF99D0
:011CAD002214
:101B8D00E4FDFC74132DF58274133CF583E493FF8F
:0E1B9D00121C9E0DBD00010CED64064C70E59F
:011BAB002217
:101ADD00E4FDFC121B8DE4FCFD74092DF5827413DD
:101AED003CF583E493FF121C9E0DBD00010CED64CB
:041AFD000A4C70E53A
:011B010022C1
:021C5900AE07D4
:101C5B00E4FDEDC39E500C121CA6741A2DF8A607BA
:031C6B000D80EFFA
:011C6E002253
:101BCA00121B8DE4FEEEC3940674809480500CEED2
:0D1BDA0090131993FF121C9E0E80EA7F01EC
:011BE70022DB
:101C0500121B8DE4FEEEC3940774809480500CEE95
:0B1C150090133B93FF121C9E0E80EA10
:011C200022A1
:101A3A00E4FEEEC39406748094805006121C980E3D
:101A4A0080F0E4FEEEC3940774809480500CEE900C
:0A1A5A00134293FF121C9E0E80EA57
:011A6400225F
:101C2100121B8DE4FEEEC3940B74809480500CEE75
:0B1C310090132593FF121C9E0E80EA0A
:011C3C002285
:101C3D00121B8DE4FEEEC3940674809480500CEE5E
:0B1C4D0090134993FF121C9E0E80EACA
:011C58002269
:101A6500E4FEEEC39406748094805006121C980E12
:101A750080F0E4FEEEC3940674809480500CEE90E2
:0A1A8500134F93FF121C9E0E80EA1F
:011A8F002234
:0810C0008E3C8F3DAB05AA0434
:1010C800753EEF753F01AF0EAE0DAD0CAC0B781849
:1010D800120E4A8F40AF0EAE0DAD0CAC0B7810124D
:1010E8000E4A8F41AF0EAE0DAD0CAC0B7808120E48
:1010F8004A8F42850E43754407E4F5457FEF121C7D
:101108009E7F01121C9EAF0EAE0DAD0CAC0B781875
:10111800120E4A121C9EAF0EAE0DAD0CAC0B781021
:10112800120E4A121C9EAF0EAE0DAD0CAC0B780819
:10113800120E4A121C9EAF0E121C9E7F01121C9E9C
:101148001F121C9E7F07121C9E7F0C121C9EE53CE2
:10115800FF121C9EAF3D121C9EAF02121C9EAF03D5
:10116800121C9EE53C2414FFE433FE7C00EF253D71
:10117800FDEC3EFCEA7E002DFFEE3CFE7C00EF2BF2
:10118800FFEC3EAD07FCFF121C9EAF05121C9E75BE
:0A1198000800750900750A3E7F008B
:0111A200222A
:02173300AB0702
:10173500E4F53DF53CF53BF53AEEF514EBF515E42E
:10174500FBEBC39407748094805021740F2BF8E64B
:10175500FFE4FCFDFEE53D2FF53DEE353CF53CEDAA
:10176500353BF53BEC353AF53A0B80D5E4FFE53CE6
:10177500FEE4FDFC7808120E4A8F16E53DFF8F1733
:10178500121B8DE4FBEBC3940974809480500C7498
:0B1795000F2BF8E6FF121C9E0B80EAF1
:0117A0002226
:100B2700121CB17BFF7A12797F7D03E4FF1218BF95
:100B37007BFF7A12798A7541107D037F511217A1C5
:100B4700E4F518F519F54FFF12180A7F647E0012B5
:100B57001BACE54F64046070E4FF12180A8F4F7FE7
:100B6700647E00121BACE54F64037016D3E519943D
:100B770000E51894004008E519151970021518E4E6
:100B8700F54FE54F64027016C3E5199463E51894B1
:100B97000050080519E51970020518E4F54F7BFFA9
:100BA7007A12798D7541107D06E4FF1217A1E4854D
:100BB7001941851840F53FF53E7542037543107D91
:100BC700067F1912160E808AE4FFFE12190C7BFFAE
:100BD7007A12797FE4FD7F131218BF121BCA7BFFBD
:100BE7007A1279917D027F131218BF7F0C121C595C
:100BF7007BFF7A1279967D047F131218BFAF23EF1C
:100C0700703E121C057F0C121C59E4FFFE12190CD2
:100C17007BFF7A12799B7D027F301218BF7BFF7AA8
:100C27001279A07D02E4FF1218BF121BCA7F0C12B3
:100C37001C597FD07E07121BAC7FB87E0B121BACF2
:100C4700AF23EF6003020CD37FC8FE121BACE4FF97
:100C5700FE12190C7BFF7A1279AFE4FDFF1218BF61
:100C67007BFF7A12798D7541107D06E4FF1217A17B
:100C7700E4851941851840F53FF53E7542037543F4
:100C8700107D067F1912160E121A3A7F0C121C5984
:100C97007FE87E03121BAC121C3D7F0C121C59AF60
:100CA70019AE181217337F0C121C597FD07E07120A
:100CB7001BACE4FFFE12190C7BFF7A12799BE4FD53
:100CC7007F301218BF7FE87E03021BACE4FFFE12E1
:100CD700190C7BFF7A1279B8E4FD7F301218BF2216
:100FBE007BFF7A1279C1E4FD7F181218BF7BFF7A8E
:100FCE001279CA7D027F181218BF7FE87E03121BAA
:100FDE00AC121BCA7F0C121C59AF23EF6003021018
:100FEE0070121C057F0C121C59121C217F10121C32
:100FFE0059AF23EF7050FFFE12190C7BFF7A127956
:10100E00D5E4FD7F181218BFAF24EFFEAD257C008E
:10101E00E42DF519EC3EF5187BFF7A12798D7541AA
:10102E00107D06E4FF1217A1E4851941851840F5DD
:10103E003FF53E7542037543107D067F1912160E5D
:10104E007FA07E0F8059E4FFFE12190C7BFF7A12EF
:10105E0079DEE4FD7F181218BF7FE87E03121BAC09
:10106E008046E4FFFE12190C7BFF7A1279E77D04AD
:10107E007F301218BF7BFF7A12798D7541107D0675
:10108E00E4FF1217A1E4F541F540F53FF53E754238
:10109E00017543107D067F1912160E7FDC7E051238
:1010AE001BACE4FFFE12190CE54F64056003020F42
:0210BE00BE2250
:1011A300E4F53AF53BF54FFF12180A7BFF7A127903
:1011B3008D7541107D06E4FF1217A1021274E54FED
:1011C3006404700302127EE4F54FFF12180A7F6471
:1011D3007E00121BACE54F64037015F54FD3E53B5E
:1011E3009400E53A94004008E53B153B7002153A3C
:1011F300E54F64027015F54FC3E53B9463E53A94FC
:10120300005008053BE53B7002053AE54F64047066
:10121300397D01FCAF3BAE3A1210C0EF3395E04F7E
:101223007028FFFE12190C7BFF7A1279EE7D02E41F
:10123300FF1218BF7BFF7A1279F17D027F1112181A
:10124300BF7FB87E0B121BAC800BE54F64057009A2
:10125300FFFE12190CE4F54F22E4853B41853A4029
:10126300F53FF53E7542037543107D067F1912164F
:0B1273000E7F647E00121BAC0211C154
:01127E00224D
:101A9000E4FFFE12190C121A657F0C121C59E4FFA8
:101AA000FE12190C7BFF7A1279F77D027F20121843
:081AB000BF7FD07E07021BACD2
:10156F00E4F53A7523017BFF7A137900FDFF12181A
:10157F00BF7BFF7A1379007D03E4FF1218BF7BFF57
:10158F007A1379007D05E4FF1218BFE4F53AC3E53D
:10159F003A940574809480500B7F647E00121BACCC
:1015AF00053A80EA7BFF7A137903E4FD7F3812183E
:1015BF00BF7BFF7A1379037D037F381218BF7BFF40
:1015CF007A1379037D057F381218BF121ADD7F0C4D
:1015DF00121C59AF23EF70267BFF7A137906FD7F1C
:1015EF00501218BF7BFF7A1379067D037F501218B4
:0E15FF00BF7BFF7A1379067D057F501218BF5F
:01160D0022BA
:1019D800D6B8CEC6BFBCC7DACFB5CDB3002A00BFD4
:1019E800AACABCBFBCC7DA00C2BCC8EBD6B8CEC650
:1019F80000C9BEB300D6B8CEC600C7E5BFD500D66D
:061A0800B8CEC6BFE200EB
:061B8600015002015102B2
:10186800E4FFFE12190C7BFF7A1979D8E4FD7F1189
:101878001218BF7BFF7A1979E5754110AD517F4683
:101888001217A17BFF7A1979E77D02E4FF1218BFCE
:101898007BFF7A1979F07D04E4FF1218BF7BFF7A89
:1018A8001979F97D06E4FF1218BF7BFF7A1979FDD3
:0718B8007D067F210218BF2D
:10195600E4FFFE12190C7BFF7A1979F9E4FDFF12F8
:1019660018BF7BFF7A1979FDE4FD7F201218BF7B33
:10197600FF7A1979E5754110AD517F501217A17B99
:10198600FF7A1A79027D02E4FF1218BF7BFF7A1AEA
:0919960079077D027F200218BFD1
:101B0200AF507E00EF640270057550068014EF64DA
:101B1200044E70057550028009EF64064E7003751D
:051B22005004AF502249
:101B2700AF507E00EF640270057550048014EF64B7
:101B3700044E70057550068009EF64064E700375F4
:051B47005002AF502226
:100E6900121410121C84121CAEE4FFFE12190C128B
:100E7900156FE4FFFE12190C1218687F01121AB8D7
:100E8900121CB17F647E00121BAC121CB1E4F54F39
:100E9900FF12180A7F647E00121BACE55065516091
:100EA9000C855051E4FFFE12190C121868E54F64C5
:100EB900037003121B27E54F64027003121B02E53E
:100EC9004F64046003020FB4E55024FC601C24FE47
:100ED900602D24046003020FB4E4FFFE12190CE430
:100EE900F54F120FBE755002800FE4FFFE12190C68
:100EF900E4F54F120B27755004121868020FB1E47C
:100F0900FFFE12190CE4F550F551F54F121956E48C
:100F1900F54FFF12180A7F647E00121BACE550657D
:100F290051600C855051E4FFFE12190C121956E557
:100F39004F64037016AF50FEEF70057550028008BC
:100F4900EF64024E7002F550E4F54FE54F6402700C
:100F590016AF50FEEF70057550028008EF64024E1F
:100F69007002F550E4F54FE54F64047024E5502410
:100F7900FE600F2402701AE4F54F1211A3E4F55034
:100F89008009E4F54F121A90755002121956E4F5CA
:100F99004FE54F64057004F54F800A7F647E0012A7
:100FA9001BAC020F18755006E4F54F7F647E0012E2
:050FB9001BAC020E93C9
:1016B300020E69E493A3F8E493A34003F68001F2D6
:1016C30008DFF48029E493A3F85407240CC8C33338
:1016D300C4540F4420C8834004F456800146F6DF07
:1016E300E4800B0102040810204080901B6EE47E0E
:1016F300019360BCA3FF543F30E509541FFEE493FC
:10170300A360010ECF54C025E060A840B8E493A3C2
:10171300FAE493A3F8E493A3C8C582C8CAC583CAED
:10172300F0A3C8C582C8CAC583CADFE9DEE780BEA5
:011B8C000058
:100CE700BB010689828A83E0225002E722BBFE020B
:090CF700E32289828A83E493223E
:100D0000BB010CE58229F582E5833AF583E02250A8
:100D100006E92582F8E622BBFE06E92582F8E222F2
:0D0D2000E58229F582E5833AF583E493220C
:100D2D00E88FF0A4CC8BF0A42CFCE98EF0A42CFC65
:100D3D008AF0EDA42CFCEA8EF0A4CDA8F08BF0A4E3
:100D4D002DCC3825F0FDE98FF0A42CCD35F0FCEB42
:100D5D008EF0A4FEA9F0EB8FF0A4CFC5F02ECD3907
:0F0D6D00FEE43CFCEAA42DCE35F0FDE43CFC2274
:100D7C0075F008758200EF2FFFEE33FECD33CDCC2E
:100D8C0033CCC58233C5829BED9AEC99E5829840B1
:100D9C000CF582EE9BFEED9AFDEC99FC0FD5F0D68E
:100DAC00E4CEFBE4CDFAE4CCF9A88222B800C1B9B8
:100DBC000059BA002DEC8BF084CFCECDFCE5F0CBF6
:100DCC00F97818EF2FFFEE33FEED33FDEC33FCEB2F
:100DDC0033FB10D703994004EB99FB0FD8E5E4F9EA
:100DEC00FA227818EF2FFFEE33FEED33FDEC33FCD7
:100DFC00C933C910D7059BE99A4007EC9BFCE99ACB
:100E0C00F90FD8E0E4C9FAE4CCFB2275F010EF2F0F
:100E1C00FFEE33FEED33FDCC33CCC833C810D7070F
:100E2C009BEC9AE899400AED9BFDEC9AFCE899F84A
:0E0E3C000FD5F0DAE4CDFBE4CCFAE4C8F922DD
:100E4A00E8600FECC313FCED13FDEE13FEEF13FF86
:030E5A00D8F122AA
:0C0E5D00A42582F582E5F03583F58322A0
:00000001FF
