:10000300D4DAB1A3B4E6B4CEB0DC00B9A6C7E50038
:100013000000000000000000002F000000000700A7
:10002300070000147F147F1400242A7F2A12006221
:1000330064081323003649552250000005030000CD
:1000430000001C224100000041221C000014083E55
:1000530008140008083E0808000000A0600000081B
:10006300080808080000606000000020100804026F
:10007300003E5149453E0000427F4000004261512D
:100083004946002141454B31001814127F100027C7
:1000930045454539003C4A4949300001710905038A
:1000A30000364949493600064949291E00003636BB
:1000B300000000005636000000081422410000141E
:1000C30014141414000041221408000201510906FB
:1000D30000324959513E007C1211127C007F49497C
:1000E3004936003E41414122007F4141221C007FAD
:1000F30049494941007F09090901003E4149497ABB
:10010300007F0808087F0000417F41000020404134
:100113003F01007F08142241007F40404040007FA0
:10012300020C027F007F0408107F003E4141413EE4
:10013300007F09090906003E4151215E007F09192C
:1001430029460046494949310001017F0101003F29
:100153004040403F001F2040201F003F4038403FA9
:10016300006314081463000708700807006151490D
:10017300454300007F4141000002040810200000B5
:1001830041417F000004020102040040404040401E
:10019300000001020400002054545478007F4844B6
:1001A300443800384444442000384444487F0038ED
:1001B3005454541800087E0901020018A4A4A47C16
:1001C300007F080404780000447D400000408084E0
:1001D3007D00007F102844000000417F4000007C28
:1001E30004180478007C0804047800384444443834
:1001F30000FC242424180018242418FC007C080480
:10020300040800485454542000043F444020003C58
:100213004040207C001C2040201C003C4030403CDF
:10022300004428102844001CA0A0A07C004464546F
:100233004C440008364100000000007E000000002E
:1002430041360800001008102010000000000000D4
:1002530000000000000000000000000000F80000A3
:100263000000000000333000000000100C06100CEA
:100273000600000000000000000040C07840C07885
:100283004000043F04043F040400007088FC08306D
:100293000000001820FF211E0000F008F000E01805
:1002A300000000211C031E211E0000F008887000BE
:1002B30000001E2123241927211010160E00000010
:1002C30000000000000000000000000000E018042F
:1002D3000200000000071820400000020418E0009C
:1002E30000000040201807000000404080F08040DC
:1002F30040000202010F01020200000000F00000B2
:1003030000000101011F01010100000000000000C5
:10031300000080B07000000000000000000000003A
:1003230000000001010101010101000000000000C3
:10033300000000303000000000000000000080607A
:100343001804006018060100000000E010080810FF
:10035300E000000F102020100F00001010F8000024
:1003630000000020203F20200000007008080888BB
:10037300700000302824222130000030088888488B
:1003830030000018202020110E000000C02010F8BB
:10039300000000070424243F240000F8088888088C
:1003A30008000019212020110E0000E01088881891
:1003B3000000000F112020110E0000380808C83873
:1003C30008000000003F0000000000708808088853
:1003D3007000001C222121221C0000E010080810DC
:1003E300E0000000312222110F00000000C0C00015
:1003F300000000000030300000000000008000001A
:100403000000000080600000000000008040201019
:100413000800000102040810200040404040404012
:100423004000040404040404040000081020408075
:1004330000000020100804020100007048080808AA
:10044300F0000000003036010000C030C828E8107A
:10045300E0000718272423140B000000C038E00035
:100463000000203C23020227382008F8888888707F
:100473000000203F202020110E00C030080808088B
:100483003800071820202010080008F80808081072
:10049300E000203F202020100F0008F88888E8089B
:1004A3001000203F20202320180008F88888E8083F
:1004B3001000203F200003000000C0300808083867
:1004C300000007182020221E020008F80800000878
:1004D300F808203F210101213F20000808F80808FF
:1004E30000000020203F2020000000000808F8083A
:1004F3000800C08080807F00000008F888C02818AA
:100503000800203F20012638200008F808000000DA
:100513000000203F20202020300008F8F800F8F8E1
:100523000800203F003F003F200008F830C00008CB
:10053300F808203F200007183F00E01008080810C3
:10054300E0000F10202020100F0008F8080808080A
:10055300F000203F210101010000E010080808100D
:10056300E0000F18242438504F0008F88888888842
:100573007000203F2000030C30200070880808081A
:1005830038000038202121221C00180808F8080828
:1005930018000000203F2000000008F808000008B1
:1005A300F808001F202020201F000878880000C8BA
:1005B3003808000007380E010000F80800F80008AA
:1005C300F800033C0700073C0300081868808068B4
:1005D300180820302C03032C30200838C800C838F2
:1005E30008000000203F2000000010080808C83859
:1005F30008002038262120201800000000FE0202F7
:1006030002000000007F40404000000C30C00000AA
:100613000000000000010638C00000020202FE00D4
:100623000000004040407F0000000000040202027E
:1006330004000000000000000000000000000000B3
:10064300000080808080808080800002020400009F
:100653000000000000000000000000008080808097
:1006630000000019242222223F2008F80080800085
:100673000000003F112020110E0000000080808048
:100683000000000E1120202011000000008080884F
:10069300F800000E112020103F2000008080808091
:1006A3000000001F222222221300008080F088888D
:1006B30088180020203F20200000000080808080D8
:1006C3008000006B94949493600008F8008080800D
:1006D3000000203F210000203F2000809898000068
:1006E30000000020203F2020000000000080989898
:1006F300000000C08080807F000008F80000808038
:100703008000203F24022D302000000808F800005C
:1007130000000020203F2020000080808080808017
:100723008000203F20003F20003F808000808080A9
:100733000000203F210000203F20000080808080B7
:100743000000001F202020201F00808000808000E8
:10075300000080FFA12020110E0000000080808097
:100763008000000E112020A0FF8080808000808008
:10077300800020203F212000010000008080808035
:1007830080000033242424241900008080E080802A
:1007930000000000001F2020000080800000008077
:1007A3008000001F202020103F20808080000080D8
:1007B300808000010E3008060100808000800080E8
:1007C30080800F300C030C300F000080800080808D
:1007D30080000020312E0E312000808080000080B8
:1007E300808080818E701806010000808080808068
:1007F30080000021302C2221300000000000807C8A
:10080300020200000000003F404000000000FF0023
:10081300000000000000FF0000000002027C8000D6
:1008230000000040403F00000000000601010202FA
:1008330004040000000000000000D6B8101010FFF0
:100843001090003F48484444444270000444827F6F
:10085300010000FF4949494949FF0000CEC6203045
:10086300AC63100808F8090E08F8080800002267AE
:100873002212928040211608162140808000BFBCBE
:10088300202024242424BF6424342824222020006C
:1008930010080402010D0B094989493901000000C0
:1008A300C7DA04C45F54F4545FC41410FF1010F08B
:1008B3000000809595957F55D55520184780403F7A
:1008C3000000CFB5000022322AA6A26221110981BD
:1008D30001000000004222130B42827E02020A1230
:1008E30023460000CDB32030AC63300088C8A899FC
:1008F3008E88A8C8880022672212128040300F0019
:10090300003F40407100BFAA80828282FE828282C1
:100913008282FE8282828000008040300F000000CD
:100923000000FF0000000000CABC1010F01F10F010
:100933000040E05847405060C0004022150816218F
:100943000000FE42424242FE0000C2BC808082920E
:1009530092929292929292FE808080004040222452
:100963001048807F0408182422404000C9BE80FE3E
:100973008282FE80FE8282FE8000F800FF00403FFC
:100983000020BF403F40807F00004F807F00C8EBC6
:10099300000000000001E21CE00000000000000075
:1009A300804020100C03000000030C3040808000C6
:1009B300B3C90000F8888888880808FF08090AC8AE
:1009C300080080601F0010201F8040211618264158
:1009D300F800B9A6080808F80808081010FF101056
:1009E30010F000001030101F088848300E014080BE
:1009F300403F0000D4D90202F292929292FE929268
:100A03009292F20202000404FF04040404070404A3
:100A130044847F040400B4CE00020C806080403024
:100A23000FC808082818000002027E018040201821
:100A33000601061820408000CAA70040301E10108F
:100A430010FF101010101000000081814121110DC2
:100A53000301030D112141818100B0DC00FE02FA84
:100A630002FE4020D8171010F01010008047300FFE
:100A7300106780402116081621408000D50000022F
:100A830002C2020202FE828282828202000040408F
:100A9300407F4040407F4040404040404000B1A341
:100AA300008060F807003E2222E222223E0000007E
:100AB300010000FF2011090503FF030509112000B0
:100AC300D4DA080888C8380C0B0808E808080808AE
:100AD3000800020100FF40414141417F4141414142
:100AE3004000B4E6040484E41C0724242424A464FE
:100AF30024040400020100FF00020242827F02027A
:100B030002020200B7C50808F94A48C84820D817A6
:100B13001010F010100040300F20403F804021168D
:100B2300081621408000B4F2101010FF1090040446
:100B33000404FC04040404000444827F0100000054
:100B430040807F0000000000BFA84040404040407C
:100B5300FF4444444444444040000000000000007B
:100B6300FF000002040810000000CAE488681FC8E0
:100B73000810C85452D1129408D01000091909FF63
:100B83000500FF1292FF005F807F0000B30000FEAC
:100B9300225A8620102824E324281020200000FF56
:100BA300040827110D41817F010509310000C7E5C4
:100BB3001060028C00445454547F545454444000F5
:100BC30004047E010000FF15151555957F000000F4
:100BD300BFD5100C4424140405060404142444143F
:100BE3000C00004040414141417F4141414140406F
:100BF3000000BFE20000FC2424A4643DA6242424B6
:100C03002424040040300F1013121212FF12121288
:100C130012101000C7EB4042CC0000445454547FE0
:100C230054545444400000007F201000FF15151554
:100C330055957F0000000000000000000000000048
:100C43000080C0C0E0E0F0F0F0F8F8F8F8F8F8F849
:100C5300F8F8F0F0E0E0C0C0800000000000000001
:100C63000000000000000000000000C0F0FCFEFFD8
:100C7300FF3F1F0F070703030301010101010101E7
:100C830001030303070F0F1F7FFFFEFCF8F0C08073
:100C9300000000000000000000FCFFFFFFFF1F0337
:100CA3000038787C7C7C7C38000000000000000069
:100CB3000000007C7C7C7C7C3800033FFFFFFFFF4F
:100CC300FE00000000000000001FFFFFFFFFFCC04C
:100CD30000000000000C1E1E3C3C38383838383801
:100CE300383C1C1C0C0C00000080C0FEFFFFFF7F83
:100CF3000F00000000000000000000030F1F3F7FF3
:100D0300FFFEFCF8F0F0E0E0C0C0C0C0C0C0C0C04F
:100D1300C0C0E0E0F0F8F8FCFF7F3F1F07030000CE
:100D230000000000000000000000000000000000C0
:100D3300000001030303070F0F0F0F0F0F0F0F0F18
:100D43000F0F0F0703010100000000000000000067
:100D53000000000000000028C8C838C038D41010B4
:100D6300300020100C035C2018070E3040000040B8
:100D7300CC00FC0404F80808F80000100F10272228
:100D8300425F404443200040CC001010FC10FE1092
:100D9300100000201F20514D43417F4141000000BE
:100DA300000004F8E000000000004020100C0300E5
:100DB30000030C302000000010FE102C505048445B
:100DC30070000002413E00003E2A2A3E00000060FF
:100DD30058C42010F01C907018000026159442206F
:100DE300130C132040000040404848BE4838484494
:100DF300200000000402010F45C5651D000000C06E
:100E03005EF45CC42420FE20E00000474D3F2DAB80
:100E1300601C03403F000000006454CC4424B20231
:100E23000000004022120F427E060A116200006099
:100E3300D8463088689E08C888000026131242618D
:060E43001F007F4061006A
:1016EB00E4FEEEC39408748094805015EF30E70449
:1016FB00D2968002C296C297D297EF25E0FF0E805A
:01170B00E1FC
:01170C0022BA
:0B172B00F583E493FF7E007D017C004D
:10173600ED4C6004D2948002C294C2931216EBD28E
:021746009322EC
:06169400E0FFA3E02EFDC3
:10169A00AB07ED24B0FFE433FEE4FDFC121736EB92
:1016AA00240254F0C4540F7E004410FF121736EB84
:0C16BA002402FF7E00EF540FFF021736E1
:10160100EF4E600479FF8002E4F9E4FBEBFF7E001A
:10161100C39408748094805030EF24B0FFEE33FE01
:10162100E4FDFC121736E4FFFE121736E47F10FECC
:10163100121736E4FAEAC39482748094805007E961
:0916410012172F0A80EF0B80C381
:01164A00227D
:10174800D2957F647E0012170DC2957F647E0012C9
:05175800170DD29522DF
:10137A00121748E4FDFC7FAEFE121736E4FFFE1298
:10138A001736E47F10FE121736E47F40FE12173636
:10139A00E47FB0FE121736E47F81FE121736E47F2F
:1013AA00FFFE121736E47FA1FE121736E47FA6FE6F
:1013BA00121736E47FA8FE121736E47F3FFE121793
:1013CA0036E47FC8FE121736E47FD3FE121736E4DE
:1013DA00FFFE121736E47FD5FE121736E47F80FE31
:1013EA00121736E47FD9FE121736E47FF1FE121780
:1013FA0036E47FDAFE121736E47F12FE121736E45D
:10140A007FDBFE121736E47F30FE121736E47F8D3B
:10141A00FE121736E47F14FE121736E47FAFFE027F
:02142A00173673
:0715A500A905900024EFF0FE
:1015AC00C3EB9F0490002AF0900027E0C3990490AD
:1015BC00002BF0900028E06006A374FFF08005E497
:1015CC00900029F0E4FA90002BE0FFEAC39F50242E
:1015DC00900024E0FFE92AFD12169AE4FB90002A01
:1015EC00E0FFEBC39F500A900029E012172F0B80ED
:0415FC00EC0A80D2A3
:0116000022C7
:0B100B00900035EDF0900034EFF0FD98
:10101600E4900038F0A3F0A3F0EB24E0900038F061
:10102600EDD3948174809480400AE4900034F0A358
:10103600E02402F0900037E06410706D90003AF002
:1010460090003AE0FEC3940274809480400302103C
:10105600F2900034121694E4900039F0900039E0D2
:10106600FFC39408748094805037900038E075F080
:1010760010A42FF582E435F0F583C083C08290007A
:101086003AE0D082D08375F008120FFFE582244D36
:10109600F582E583340212172B900039E004F080C4
:1010A600BB90003AE004F08097900034E0FFA3E0A4
:1010B600FD12169AE4900039F0900039E0FFC394CF
:1010C60006748094805025900038E075F006A424BC
:1010D60013F582E5F03400F583E5822FF582E435D9
:0C10E6008312172B900039E004F080CD3D
:0110F20022DB
:10142C0090002CEFF0A3EDF0A3EBF0A3EAF0A3E90E
:01143C00F0BF
:10143D00E4900032F0900031E0FFFD7C006410700C
:10144D0005EFC313800EED64084C7068900031E019
:10145D00C3132402900033F090002EE0FBA3E0FABA
:10146D00A3E0F9900032E0F582758300120E62FB65
:10147D00604290002CE0FFA3E0FD900031E0900071
:10148D0037F012100B900033E0FF90002CE02FF09E
:10149D00E0D39478748094804012E4F0900031E0B1
:1014AD00131313541FFF90002DE02FF0900032E026
:0414BD0004F080A413
:0114C1002208
:08164B0090003BEFF0A3EDF06D
:10165300A3120FCE0000000190003CE0FF14F0EF56
:101663006020A3E0F8A3E0F9A3E0FAA3E0FB900075
:101673003BE0FFE4FCFDFE120EA590003D120FC2FD
:1016830080D690003DE0FCA3E0FDA3E0FEA3E0FFD5
:011693002234
:0810F30090000EEFF0A3EDF0F8
:1010FB00E4900017F0900015E0FFFD7C0064107089
:10110B0005EFC3138011ED64084C60030211D590F9
:10111B000015E0C3132402900018F0E4900016F0C1
:10112B00900014E0F9900016E0FFC3994003021100
:10113B00D5C3E99F14FD7F0A12164BA804A905AA73
:10114B0006AB07900010E0FCA3E0FDA3E0FEA3E0DC
:10115B00FF120F30E47B0AFAF9F8120F30AF03AE2F
:10116B0007900017E07035900014E014FF90001604
:10117B00E0FDC39F5026EE701D900018E08DF0A48B
:10118B00FF90000EE02FFFA3E0FD900015E0900014
:10119B0037F07B2080289000177401F0900016E048
:1011AB00FF900018E08FF0A4FF90000EE02FFFA33C
:1011BB00E0FDEE2430FB900015E0900037F01210AC
:0A11CB000B900016E004F002112B57
:0111D50022F7
:1011D600900006EFF0A3EDF0A3EBF0A3EAF0A3E98D
:0111E600F018
:1011E70090000CE4F0A3741EF0E490000BF0900064
:1011F7000BE0FFD390000DE09F90000CE0940050AF
:10120700030212B5900008E0FBA3E0FAA3E0F9128D
:101217000E49FF90000BE0FE75F022A4243DF582F5
:10122700E5F03408F583E4936F707A900001120EAD
:1012370062FF75F022EEA4243EF582E5F03408F54E
:1012470083E4936F705FFAEAC394027480948050CA
:101257005D900006E0FFA3E02AFD12169AE4FBEB7F
:10126700C39410748094805039EA75F010A4FFEB92
:101277007C002FFFEC35F0FE90000BE075F022A408
:10128700243FF582E5F03408F583E5822FF582E502
:10129700833EF583E493F9FF7E007D011217360B39
:0E12A70080BD0A80A290000BE004F00211F559
:0112B5002216
:10154100900000EFF0A3EDF0A3EBF0A3EAF0A3E924
:01155100F0A9
:10155200A37410F0900002E0FBA3E0FAA3E0F912FA
:101562000E49603E900000E0FFA3E0FD1211D6900C
:101572000005E0FF900000E02FF0C374829FFFE0BF
:10158200D39F4012E4F0900005E0131313541FFFA1
:10159200900001E02FF0900003E475F002120E8F2C
:0215A20080B215
:0115A4002224
:0B12B600900019EFF0A3EDF0A3EBF0A7
:1012C100E4900021F090001CE02407FFE433FEEFDE
:1012D1007803CEC313CE13D8F9FF900021E0FEC3EB
:1012E1009F4003021379900019121694E490002292
:1012F100F090001BE0FF900022E0FDC39F50709032
:101301000020E0602CA3E08FF0A47C002DFFEC35E1
:10131100F0FE90001DE0FBA3E0FAA3E0F98F828EBE
:1013210083120E62900023F07F0A7E0012170D8057
:101331002E90001BE0FF900021E08FF0A4FFA3E0BE
:101341007C002FFFEC35F0FE90001DE0FBA3E0FADE
:10135100A3E0F98F828E83120E62F4900023F09045
:101361000023E012172F900022E004F00212F29005
:081371000021E004F00212C6A5
:011379002251
:0814C200900041EFF0A3EDF0F2
:1014CA00E4A3F0F9E9C3940B748094805068E4FAB9
:1014DA00EAC39402748094805047900041E0FFA3CD
:1014EA00E02AFD12169AE4FBEBC3940C74809480F4
:1014FA00502C900043E02BFF75F00CEAA42FF582E4
:10150A00E435F0F583E5822459F582E583340DF557
:10151A0083E493FF900044F01217300B80CA0A80CC
:10152A00AFE975F018A4900043F0E975F00CA490A7
:06153A000041F009808E63
:011540002288
:1016C60012137AE4FFFE1216017BFF7A0079037D7E
:1016D60005E4FF1215417BFF7A00790E7D057F5ADE
:0516E60012154180E433
:10170D00D3EF9400EE940040147D727C00ED1D70BB
:0D171D00011CED4C70F7EF1F70E61E80E31D
:01172A00229C
:0300000002175D87
:0C175D00787FE4F6D8FD7581070216C6FF
:100E4900BB010689828A83E0225002E722BBFE02A7
:090E5900E32289828A83E49322DA
:100E6200BB010CE58229F582E5833AF583E0225045
:100E720006E92582F8E622BBFE06E92582F8E2228F
:0D0E8200E58229F582E5833AF583E49322A9
:100E8F00C5F0F8A3E028F0C5F0F8E58215827002EE
:060E9F001583E038F0228B
:100EA500E88FF0A4CC8BF0A42CFCE98EF0A42CFCEC
:100EB5008AF0EDA42CFCEA8EF0A4CDA8F08BF0A46A
:100EC5002DCC3825F0FDE98FF0A42CCD35F0FCEBC9
:100ED5008EF0A4FEA9F0EB8FF0A4CFC5F02ECD398E
:0F0EE500FEE43CFCEAA42DCE35F0FDE43CFC22FB
:100EF40075F008758200EF2FFFEE33FECD33CDCCB5
:100F040033CCC58233C5829BED9AEC99E582984037
:100F14000CF582EE9BFEED9AFDEC99FC0FD5F0D614
:100F2400E4CEFBE4CDFAE4CCF9A88222B800C1B93E
:100F34000059BA002DEC8BF084CFCECDFCE5F0CB7C
:100F4400F97818EF2FFFEE33FEED33FDEC33FCEBB5
:100F540033FB10D703994004EB99FB0FD8E5E4F970
:100F6400FA227818EF2FFFEE33FEED33FDEC33FC5D
:100F7400C933C910D7059BE99A4007EC9BFCE99A51
:100F8400F90FD8E0E4C9FAE4CCFB2275F010EF2F96
:100F9400FFEE33FEED33FDCC33CCC833C810D70796
:100FA4009BEC9AE899400AED9BFDEC9AFCE899F8D1
:0E0FB4000FD5F0DAE4CDFBE4CCFAE4C8F92264
:0C0FC200ECF0A3EDF0A3EEF0A3EFF022A2
:100FCE00A8828583F0D083D082120FE5120FE5122E
:100FDE000FE5120FE5E473E493A3C583C5F0C58353
:100FEE00C8C582C8F0A3C583C5F0C583C8C582C86D
:010FFE0022D0
:0C0FFF00A42582F582E5F03583F58322FD
:00000001FF
