:030000000200718A
:0C007100787FE4F6D8FD75810802007D60
:10000300D3EF9400EE940040147D727C00ED1D70DC
:0D001300011CED4C70F7EF1F70E61E80E33E
:0100200022BD
:10005B00758920758DFD758BFDD28EC29FD29ED278
:06006B009CD2AFD2AC22D2
:05007D0012005B80FE93
:03002300020026B2
:10002600C0E0C0D075D000C004C005C006C007300F
:1000360098168599087F647E001200030508C29809
:100046008508993099FDC299D007D006D005D0040D
:05005600D0D0D0E03223
:00000001FF
